:1070000055C000006EC000006CC000006AC00000E7
:1070100068C0000066C0000064C0000062C00000DC
:1070200060C000005EC00000C6C400005AC000007E
:1070300058C0000056C0000054C0000052C00000FC
:1070400050C00000DEC000004CC000004AC000007C
:1070500048C0000046C0000044C0000042C000001C
:1070600040C000003EC000003CC000003AC000002C
:1070700038C0000036C0000034C0000032C000003C
:1070800030C000002EC000002CC000002AC000004C
:1070900028C0000026C0000024C0000022C000005C
:1070A00020C000001EC000001CC0000011241FBE34
:1070B000CFEFDAE0DEBFCDBF11E0A0E0B1E0E8ED58
:1070C000FEE702C005900D92A63AB107D9F711E08C
:1070D000A6EAB1E001C01D92AC3BB107E1F763D372
:1070E000F9C68ECF84E08093E9000DC08091E8005E
:1070F0008B778093E80003C08EB3882359F080918A
:10710000E80082FFF9CF8091E80085FFEFCF809102
:10711000F100089580E0089593E09093E900909144
:10712000E80095FF0AC08093F1005D9884E690E046
:107130009093AB018093AA0108959091E8009E7707
:107140009093E80003C09EB3992329F09091E80042
:1071500090FFF9CFE8CF0895F89410926F00109245
:107160008100109285001092840081E085BF15BED9
:1071700047985D9A289A0C94000008958091B00178
:107180009091B10101969093B1018093B001292FA4
:1071900097FF03C03EEF391B232F220F281710F44F
:1071A00047980895479A089584B7877F84BF88E1F8
:1071B0000FB6F89480936000109260000FBE90E8C4
:1071C00080E00FB6F89490936100809361000FBE49
:1071D00081E085BF82E085BF3F9A209A559AE1E61B
:1071E000F0E09083108247985D9A289A1092890067
:1071F0009AEF9093880080936F0083E080938100E2
:10720000C2C31F920F920FB60F9211242F938F9328
:107210009F93EF93FF9310928500109284008091CA
:10722000AA019091AB01009741F001979093AB01B7
:107230008093AA01892B09F45D9A8091A80190910D
:10724000A901009741F001979093A9018093A801AB
:10725000892B09F4289AE0E0F0E085919491019659
:1072600049F08091A6019091A70101969093A70102
:107270008093A601FF91EF919F918F912F910F9095
:107280000FBE0F901F90189542E061EC82E00ED384
:1072900042E161E883E00AD342E160E884E006C3AA
:1072A0008091B401982F9F77913239F59091B50173
:1072B000903291F0913209F5813AF9F48091E80029
:1072C000877F8093E80067E070E083E091E021D45D
:1072D0008091E8008B770FC0813279F48091E800CB
:1072E000877F8093E80067E070E083E091E06ED4F0
:1072F0008091E8008E778093E80008954F925F9226
:107300006F927F928F929F92AF92BF92CF92DF92B5
:10731000EF92FF920F931F93CF93DF9384E08093BC
:10732000E9008091E80082FF2DC2289884E690E071
:107330009093A9018093A801D5DE082F853481F4AC
:107340008CE49DE19093A7018093A60107B600FC11
:10735000FDCFF999FECF81E180935700E89503C0F6
:10736000843521F4BFDE8DE0D7DEE3C18C34D9F360
:10737000803509F4F8CF843721F484E4CDDE80E051
:10738000F3CF813611F489E5EFCF813481F4AADEA1
:10739000C82FA8DE90E0880F991F3C2F330F20E004
:1073A000822B932BAA2797FDA095BA2F96C18037E1
:1073B00011F483E5D9CF833549F4CCE9D1E0899143
:1073C000ABDE21E0C33AD207D1F7B3C1863521F451
:1073D00081E3A2DE80E3C8CF833731F487E89CDE07
:1073E00085E99ADE8EE1C0CF8536B9F4E0E0F0E0C1
:1073F00083E095E080935700E89507B600FCFDCF49
:1074000090935700E89507B600FCFDCFE058FF4F7A
:10741000E11520E7F20771F7A6CF823719F4E1E012
:10742000F0E00EC0863419F4E0E0F0E009C08E34DC
:1074300019F4E3E0F0E004C0813539F4E2E0F0E073
:1074400089E08093570084918FCF823631F489E5AB
:1074500063DE80E061DE80E887CF823419F0873612
:1074600009F0D1C01092A7011092A6013BDEC82EF0
:1074700039DED82E37DE182F8554823010F08FE396
:1074800073CFDC2D80E0C82FCD2910926F00073616
:1074900009F041C081E180935700E895B12C01E0EB
:1074A00037C0C090AC01D090AD01E090AE01F0903B
:1074B000AF011634B9F4EB2DF0E0EC29FD298491ED
:1074C0002BDEBB2069F0E2E0CE0ED11CE11CF11CEA
:1074D000C092AC01D092AD01E092AE01F092AF014A
:1074E000B02615C0D701C601B695A7959795879583
:1074F000DBD412DEF2E0CF0ED11CE11CF11CC092F5
:10750000AC01D092AD01E092AE01F092AF012197B3
:10751000209739F674C08090AC019090AD01A09096
:10752000AE01B090AF01163409F057C083E0F4010A
:1075300080935700E89507B600FCFDCF4EC0163487
:1075400039F5DD2009F14090AC015090AD0160901B
:10755000AE017090AF01C6DDF82EE12C97012C2909
:10756000F201090100935700E8951124F2E04F0E53
:10757000511C611C711C4092AC015092AD01609293
:10758000AE017092AF0102C0ADDDC82ED02623C07F
:10759000A9DD682F8091AC019091AD01A091AE0161
:1075A000B091AF01B695A7959795879585D44091F1
:1075B000AC015091AD016091AE017091AF014E5F91
:1075C0005F4F6F4F7F4F4093AC015093AD0160937D
:1075D000AE017093AF01219703C0C12CD12C01E003
:1075E000209709F0ACCF163441F485E0F401809384
:1075F0005700E89507B600FCFDCF8DE08DDD82E0F9
:1076000080936F0096C0833471F4C091AC01D09127
:10761000AD0168DD90E021E0FE010C0120935700F0
:10762000E8951124A0CE833611F5C090AC01D0901E
:10763000AD01E090AE01F090AF0154DDB701A601BD
:10764000416090E021E0FA010C0120935700E89599
:107650001124F2E0CF0ED11CE11CF11CC092AC0150
:10766000D092AD01E092AE01F092AF017CCE8D36AA
:1076700061F4E091AC01F091AD0185E08093570099
:10768000E89507B600FCFDCF6ECE823551F4E0914F
:10769000AC01F091AD01C591D4918D2F3DDD8C2FC2
:1076A00063CE843419F51EDD682F8091AC01909172
:1076B000AD01A091AE01B091AF01B695A795979598
:1076C0008795FAD38091AC019091AD01A091AE0164
:1076D000B091AF010296A11DB11D8093AC019093B2
:1076E000AD01A093AE01B093AF013DCE8436F1F46D
:1076F000C090AC01D090AD01E090AE01F090AF0130
:10770000D701C601B695A79597958795CDD304DD8A
:1077100022E0C20ED11CE11CF11CC092AC01D0923F
:10772000AD01E092AE01F092AF0103C08B3109F0E0
:10773000A6CE83E08093E9009091E8008091E80074
:107740008E778093E80095FD11C08091E80080FD60
:1077500004C08EB38111F9CF15C08091E8008E77F7
:107760008093E80003C08EB3882361F08091E80025
:1077700080FFF9CF84E08093E9008091E8008B7767
:107780008093E800DF91CF911F910F91FF90EF90D0
:10779000DF90CF90BF90AF909F908F907F906F9031
:1077A0005F904F9008958091000890910108109289
:1077B00001081092000844B714BE28E10FB6F894EF
:1077C00020936000109260000FBE41FD1AC040FF80
:1077D00009C0E0E0F0E0259134912F3F3F4F11F0D8
:1077E000BBDC0FC043FF0DC02091000130910101AF
:1077F0008217930731F0E0E0F0E0859194910196D3
:1078000079F7D2DC78941092A7011092A6010CC0EF
:1078100075DD39D38091A6019091A70181349F41F4
:1078200010F010920201AADC809102018111F0CFC8
:107830008091E00081608093E0008EDC80E090E049
:107840000895292F30E033272230310539F02330D5
:10785000310549F02130310589F00BC02EE330E0CD
:107860008CE491E01EC0882371F0813089F0823071
:10787000A1F020E030E080E090E013C022E130E0B1
:107880008AE891E00EC024E030E088E491E009C08D
:1078900022E230E084E291E004C028E130E08AE0B6
:1078A00091E0FA0191838083C90108958093E900F2
:1078B000EBEEF0E0808181608083EDEEF0E01082FD
:1078C0006093EC0040838091EE00881F8827881F1A
:1078D00008958091B40187FD05C08091E80080FF84
:1078E0000DC010C08091E80082FD04C08EB38111EC
:1078F000F9CF08958091E8008B7707C08EB381118E
:10790000ECCF08958091E8008E778093E800089589
:107910000F931F93CF93DF9341D048D0C8EDD0E0B1
:1079200088818F77888388818068888388818F7D2C
:10793000888319BC1EBA1092B20100EE10E0F80163
:1079400080818B7F808388818160888342E060E0D2
:1079500080E0ACDFE1EEF0E080818E7F8083E2EEBC
:10796000F0E0808181608083808188608083F8017D
:1079700080818E7F8083888180618883DF91CF9131
:107980001F910F910895E7EDF0E080818160808381
:107990008AE482BF81E08093B301BACFE8EDF0E0E2
:1079A00080818E7F80831092E20008951092DA0029
:1079B0001092E10008951F920F920FB60F921124BA
:1079C0002F933F934F935F936F937F938F939F93E7
:1079D000AF93BF93EF93FF938091DA0080FF19C0BC
:1079E0008091D80080FF15C08091DA008E7F80934F
:1079F000DA008091D90019BC80FF09C082E089BDFE
:107A000009B400FEFDCF81E08EBB3CD202C01EBA9D
:107A100039D28091E10080FF17C08091E20080FFA1
:107A200013C08091E2008E7F8093E2008091E2009B
:107A300080618093E2008091D80080628093D800BA
:107A400019BC85E08EBB1ED28091E10084FF2BC063
:107A50008091E20084FF27C019BC82E089BD09B48F
:107A600000FEFDCF8091D8008F7D8093D80080915B
:107A7000E1008F7E8093E1008091E2008F7E809311
:107A8000E2008091E20081608093E2008091B20187
:107A9000811104C08091E30087FF02C084E001C02F
:107AA00081E08EBBEFD18091E10083FF21C0809106
:107AB000E20083FF1DC08091E100877F8093E10099
:107AC00082E08EBB1092B2018091E1008E7F8093A4
:107AD000E1008091E2008E7F8093E2008091E200DD
:107AE00080618093E20042E060E080E0DFDECAD1A6
:107AF000FF91EF91BF91AF919F918F917F916F9186
:107B00005F914F913F912F910F900FBE0F901F905B
:107B100018954091BA015091BB014617570748F09C
:107B20006115710539F44091E8004E774093E80003
:107B300001C0BA01FC0140E032C08EB3882309F4D1
:107B400041C0853009F440C08091E80083FD38C011
:107B50008091E80082FD2EC08091E80080FF1FC068
:107B60009091F3008091F200392F20E0A901482B79
:107B7000CA0106C041914093F1006150710901961C
:107B80006115710519F088309105A0F341E008975F
:107B900009F040E08091E8008E778093E80061155D
:107BA000710559F64111C9CF05C08EB3882351F034
:107BB000853051F08091E80082FFF7CF80E0089592
:107BC00081E0089582E0089583E0089561157105CC
:107BD00029F44091E8004B774093E800AC0127C0BE
:107BE0008EB38823B1F1853071F18091E80083FD77
:107BF0002CC08091E80082FFF3CFFA0107C080918A
:107C0000F1008193AF016150710961F0AF01909172
:107C1000F3008091F200392F20E0D901A82BCD018B
:107C2000892B69F78091E8008B778093E8006115D4
:107C30007105B1F68091E80080FD09C08EB38823FC
:107C400041F08530B9F783E0089581E0089580E040
:107C5000089582E00895EF92FF920F931F93CF93C0
:107C6000DF9300D0CDB7DEB7E4EBF1E08091F10017
:107C7000819381E0EC3BF807C9F712DB8091E800C3
:107C800083FFE9C08091B4019091B501953009F46A
:107C90006FC038F4913071F170F0933009F0DBC0AF
:107CA00029C0983009F4AAC0993009F4B9C09630B7
:107CB00009F0D1C083C0803809F4CDC0823809F002
:107CC000CAC08091B8019091B901877099278093BB
:107CD000E9009091EB001092E9008091E800877F25
:107CE0008093E80095FB882780F98093F10010923B
:107CF000F1008FC0882319F0823009F0ACC08F7179
:107D0000823009F0A8C08091B60181112BC080910A
:107D1000B8019091B90187709927009709F49BC029
:107D20008093E9002091EB0020FF1CC02091B50159
:107D3000233021F48091EB00806212C09091EB001F
:107D400090619093EB0021E030E001C0220F8A9512
:107D5000EAF72093EA001092EA008091EB00886035
:107D60008093EB001092E9008091E800877F54C077
:107D7000811171C00091B6011091B7010F771127E1
:107D8000E02EFFB6F8948091E800877F8093E800AA
:107D9000A0DD8091E80080FFFCCF8091E300807837
:107DA000802B8093E30080688093E300EE2011F045
:107DB00083E001C082E08EBBFFBE4DC080588230A0
:107DC00008F049C0AE014F5F5F4F6091B8018091EC
:107DD000B6019091B70135DD009709F43CC02091C0
:107DE000E800277F2093E800BC0189819A8191DE19
:107DF0008091E8008B778093E8002DC0803859F59A
:107E00008091E800877F8093E8008091B2018093A1
:107E1000F1008091E8008E778093E8005ADD1BC066
:107E2000811119C09091B6019230A8F48091E800B8
:107E3000877F8093E8009093B2014BDD8091B2017F
:107E4000811104C08091E30087FF02C084E001C07B
:107E500081E08EBB19DA8091E80083FF0AC080912F
:107E6000EB0080628093EB008091E800877F809335
:107E7000E8000F900F90DF91CF911F910F91FF902D
:107E8000EF9008950895CF938EB3882359F0C09151
:107E9000E900C7701092E9008091E80083FDDBDE05
:107EA000C093E900CF910895F999FECF92BD81BDAD
:107EB000F89A992780B50895262FF999FECF1FBA11
:107EC00092BD81BD20BD0FB6F894FA9AF99A0FBE03
:087ED00001960895F894FFCF1C
:107ED80077770100000000000008180341007200D5
:107EE8006400750069006E006F0020004C004C00B3
:107EF800430000002203410072006400750069001D
:107F08006E006F0020004C0065006F006E0061007D
:107F1800720064006F0000000403090409023E00B7
:107F28000201008032090400000102020100052458
:107F38000010010424020405240600010705820339
:107F48000800FF09040100020A00000007050402F6
:107F58001000010705830210000112011001020040
:107F68000008412336000100020100014341544545
:067F780052494E410000D9
:040000030000700089
:00000001FF
